:1000000011C100000C94C10C0C94960C0C946B0C58
:100010000C94400C0C94150C0C94EA0B0C94BF0B34
:100020000C94940B30C100002EC100002CC10000C4
:100030002AC1000028C1000026C1000024C1000020
:1000400022C1000020C100001EC100001CC1000030
:100050001AC1000018C1000016C100000C944A0B20
:1000600012C100000C94140B0C94EA0A0CC100009D
:100070000AC1000008C1000006C1000004C1000060
:1000800002C1000000C10000FEC00000FCC0000072
:10009000FAC00000F8C00000F6C00000F4C0000084
:1000A000F2C00000F0C00000EEC00000ECC0000094
:1000B000EAC00000E8C00000E6C00000E4C00000A4
:1000C000E2C00000E0C00000DEC000000C94B40AF2
:1000D0000C948A0AD8C00000D6C00000D4C000002A
:1000E000D2C0000005A84CCDB2D44EB93836A90212
:1000F0000C50B9918688083CA6AAAA2ABE00000026
:10010000803F000020002300260029002C002F0043
:100110003200000100000301060109010000210076
:10012000240027002A002D003000330001010000C8
:10013000040107010A0100002200250028002B000D
:100140002E003100340002010000050108010B01FE
:1001500005050505070508080808020202020A0A43
:100160000808040404040101010101010101030361
:10017000030303030303040707070C0C0C0C0C0C0C
:100180000C0C0202020206060606060606060B0B09
:100190000B0B0B0B0B0B010210202008081020404A
:1001A000102040800201020108040201010204083B
:1001B00010204080804020100804020180040201C9
:1001C0008040201008040201080402010102040812
:1001D00010204080010204081020408000000A0B1B
:1001E00002090C0D0E0807030401000000000000C6
:1001F00000000000000000000000000000000000FF
:1002000000000000000000001211100000000000BB
:1002100000000000000000000000000000000000DE
:100220000000240F11241FBECFEFD1E2DEBFCDBFEF
:1002300000E00CBF12E0A0E0B2E0E6E5F9E200E089
:100240000BBF02C007900D92A833B107D9F724E085
:10025000A8E3B2E001C01D92AF3AB207E1F711E0A6
:10026000C2E1D1E000E006C021970109802FFE0124
:100270000E947C13C131D10780E00807A9F70E94D2
:10028000D20F0C94A914BCCEFC01A089B18982E0E4
:100290008C93A485B5851C92A685B78580E18C9347
:1002A000108EA489B58986E08C93A289B3898C913C
:1002B00080618C93A289B3898C9188608C93A28988
:1002C000B3898C9180688C930288F389E02D8081BA
:1002D0008F7D80830895AF92BF92CF92DF92EF928D
:1002E000FF920F931F93CF93DF936C017B018B01E0
:1002F000040F151FEB015E01AE18BF08C017D10730
:1003000059F06991D601ED91FC910190F081E02DB9
:10031000C6011995892B79F7C501DF91CF911F91FE
:100320000F91FF90EF90DF90CF90BF90AF90089526
:10033000FC01538D448D252F30E0842F90E0821BEB
:10034000930B541710F0CF96089501970895FC0170
:10035000918D828D981761F0A28DAE0FBF2FB11DC8
:100360005D968C91928D9F5F9F73928F90E0089520
:100370008FEF9FEF0895FC01918D828D981731F0DA
:10038000828DE80FF11D858D90E008958FEF9FEF2E
:100390000895FC01918D228D892F90E0805C9F4F04
:1003A000821B91098F73992708958DE492E0F1DF04
:1003B00021E0892B09F420E0822F08958AEE92E053
:1003C000E8DF21E0892B09F420E0822F0895FC0169
:1003D000A48DA80FB92FB11DA35ABF4F2C91848DA6
:1003E00090E001968F739927848FA689B7892C9303
:1003F000A089B1898C91837080648C93938D848D56
:10040000981306C00288F389E02D80818F7D808358
:100410000895EF92FF920F931F93CF93DF93EC0118
:1004200081E0888F9B8D8C8D98131AC0E889F9899B
:10043000808185FF15C09FB7F894EE89FF8960839E
:10044000E889F98980818370806480839FBF81E01F
:1004500090E0DF91CF911F910F91FF90EF90089561
:10046000F62E0B8D10E00F5F1F4F0F731127E02E3C
:100470008C8D8E110BC00FB607FCFACFE889F98975
:10048000808185FFF5CFCE01A2DFF2CFEB8DEC0F9F
:10049000FD2FF11DE35AFF4FF0829FB7F8940B8FA9
:1004A000EA89FB8980818062D0CF682F8AEE92E052
:1004B000B0CFCF93DF93EC01888D8823B1F0AA8968
:1004C000BB89E889F9898C9185FD03C0808186FD0F
:1004D0000CC00FB607FCF7CF8C9185FFF2CF80815F
:1004E00085FFEDCFCE0173DFEACFDF91CF91089585
:1004F00080E090E0892B21F061DF81110E940000F3
:1005000080E090E0892B49F080E090E0892B29F091
:100510000E94000081110E94000080E090E0892B81
:1005200021F043DF81110E94000080E090E0892BE0
:1005300049F080E090E0892B29F00E9400008111B1
:100540000C9400000895282F30E0F901E452FE4F8A
:100550009491F901EA56FE4F4491205B3E4FF90118
:100560002491222309F435C0992311F1915092313D
:10057000F8F4E92FF0E08827EF53FD4F8F4F0C94EC
:100580007C13F202F602D302EA02EE02D802F9026A
:10059000FF02030309030D03110317031B03D80212
:1005A0001F0325032903809180008F7780938000AB
:1005B000E22FF0E0EE0FFF1FEA5CFE4FA591B49131
:1005C0008FB7F894EC91611148C040954E234C933D
:1005D0008FBF0895809180008F7DE8CF809180004B
:1005E000877FE4CF84B58F7784BDE2CF84B58F7DDC
:1005F000FBCF8091B0008F778093B000D9CF8091EE
:10060000B0008F7DF9CF809190008F77809390001C
:10061000CFCF809190008F7DF9CF80919000877F20
:10062000F5CF8091A0008F778093A000C1CF8091FB
:10063000A0008F7DF9CF8091A000877FF5CF8091BA
:1006400020018F7780932001B3CF809120018F7D8F
:10065000F9CF80912001877FF5CF4E2BB8CFCF9374
:10066000DF9390E0FC01EA56FE4F2491805B9E4FA1
:10067000FC0184918823D1F090E0880F991FFC0140
:10068000E45EFE4FA591B491FC01EA5CFE4FC5917A
:10069000D491623071F49FB7F8943C91822F809589
:1006A00083238C93E8812E2B28839FBFDF91CF91EA
:1006B00008958FB7F894EC912E2B2C938FBFF6CF23
:1006C0001F93CF93DF93182FEB0161E0C8DF2097D2
:1006D00031F460E0812FDF91CF911F9134CFCF3F74
:1006E000D10511F461E0F6CFE12FF0E0E452FE4FC6
:1006F000E491E150E23108F0B3C0F0E08827EC5714
:10070000FC4F8F4F0C947C1396039E03A303AD0301
:10071000B7033004C103C903D103DB03E503EF03CF
:10072000FE030804300412041C04260484B5806807
:1007300084BDC7BDDF91CF911F91089584B58062BC
:1007400084BDC8BDF7CF8091800080688093800011
:10075000D0938900C0938800EDCF809180008062A3
:1007600080938000D0938B00C0938A00E3CF809168
:100770008000886080938000D0938D00C0938C00AF
:10078000D9CF8091B00080688093B000C093B3004F
:10079000D1CF8091B00080628093B000C093B4004C
:1007A000C9CF80919000806880939000D093990089
:1007B000C0939800BFCF809190008062809390009A
:1007C000D0939B00C0939A00B5CF80919000886031
:1007D00080939000D0939D00C0939C00ABCF8091FC
:1007E000A00080688093A0008091A0008F7B809300
:1007F000A000D093A900C093A8009CCF8091A00036
:1008000080628093A000D093AB00C093AA0092CFE7
:100810008091A00088608093A000D093AD00C09329
:10082000AC0088CF80912001806880932001D09314
:100830002901C09328017ECF80912001806280939E
:100840002001D0932B01C0932A0174CF8091200105
:10085000886080932001D0932D01C0932C016ACF32
:10086000C038D1050CF03ECF34CF2FB7F89460914B
:10087000490270914A0280914B0290914C022FBF25
:10088000089508954F925F926F927F928F929F92F8
:10089000AF92BF92CF92DF92EF92FF920F931F938E
:1008A000CF93DF9300D000D0CDB7DEB79E838D838A
:1008B0004A015B0128013901FC0180829182A282F8
:1008C000B3824482558266827782C086D186E28670
:1008D000F38664A575A586A597A50E94C01120E0A2
:1008E00030E04AE754E40E94271169837A838B83BE
:1008F0009C83ED81FE8184869586A686B7869B01C2
:10090000AC01C301B8010E94AF122B013C01ED8183
:10091000FE81408A518A628A738A29813A814B8199
:100920005C81C701B6010E9427116B017C01ED813A
:10093000FE81C48AD58AE68AF78A808D918D0197D7
:1009400039F5A501940160E070E0CB010E94BB1075
:10095000ED81FE816487758786879787A301920161
:1009600060E070E0CB010E94BB10ED81FE81608BE6
:10097000718B828B938BA701960160E070E0CB01B5
:100980000E94BB10ED81FE81648B758B868B978BEB
:1009900026960FB6F894DEBF0FBECDBFDF91CF9184
:1009A0001F910F91FF90EF90DF90CF90BF90AF908D
:1009B0009F908F907F906F905F904F900895DC0193
:1009C0001396ED91FC91149704A0F5A1E02DF894F5
:1009D000178210861186128678941596ED91FC91F7
:1009E00004A0F5A1E02DF8941782108611861286D6
:1009F00078940895DC01ED91FD918081ED91FD9158
:100A00009081ED91FD916C9163708E2309F064608B
:100A10009F2309F06860E7E1F5E0E60FF11D6595B9
:100A200065956D936D917D918D919D91099423C0F4
:100A30001AC012C016C010C01EC009C014C013C016
:100A400006C019C009C00DC007C00DC014C0625057
:100A50007040804090400BC061507040804090409A
:100A600006C06E5F01C06F5F7F4F8F4F9F4F9E9399
:100A70008E937E936E9308958091420290914302EB
:100A8000B9CF8091400290914102B4CF80913E0253
:100A900090913F02AFCF80913C0290913D02AACF4E
:100AA00080913A0290913B02A5CF809138029091BB
:100AB0003902A0CFFC0101900020E9F73197AF0186
:100AC000481B590BBC018AEE92E005CC8F929F9295
:100AD000AF92BF920F931F93CF93DF93CDB7DEB743
:100AE000A1970FB6F894DEBF0FBECDBF19A242305A
:100AF00008F44AE08E010F5D1F4F842E912CB12C1B
:100B0000A12CA50194010E945A13E62FB901CA0134
:100B1000EA30ECF4E05DD801EE938D01232B242B19
:100B2000252B79F790E080E0109711F0CD01C2DF1E
:100B3000A1960FB6F894DEBF0FBECDBFDF91CF9167
:100B40001F910F91BF90AF909F908F900895E95C97
:100B5000E2CF4F925F926F927F928F929F92AF926D
:100B6000BF92CF92DF92EF92FF926B017C01AC01BA
:100B70009B010E941213882379F088E292E0FF9093
:100B8000EF90DF90CF90BF90AF909F908F907F902D
:100B90006F905F904F908ECF46015701E894B7F861
:100BA0002FEF3FEF4FE75FE7C501B4010E9412133B
:100BB00081110DC02FEF3FEF4FE75FE7C501B40193
:100BC0000E94201118161CF48CE292E0D8CF2FEF6F
:100BD0003FEF4FE75FE4C701B6010E94AB12181662
:100BE0001CF480E392E0CBCF2FEF3FEF4FE75FECB9
:100BF000C701B6010E94201187FDF3CF20E030E04D
:100C0000A901C701B6010E942011B12CA12C87FFB8
:100C100007C08DE24ADC5C01F7FAF094F7F8F09433
:100C20002AE037ED43EA5BE3C701B6010E94BC103E
:100C30002B013C010E9494116B017C010E94C011A8
:100C40009B01AC01C301B2010E94BB102B013C010E
:100C50004AE0C701B6013ADF7C01EA0CFB1C8EE2D8
:100C600024DCE80EF91E20E030E040E251E4C3014C
:100C7000B2010E94AF122B013C010E9494114B0162
:100C8000B12CA12C4AE0C501B40120DFE80EF91E09
:100C9000C501B4010E94C0119B01AC01C301B201A6
:100CA0000E94BB1020E030E040E251E40E94AF120D
:100CB0000E94941190E080E04AE008DF8E0D9F1DB5
:100CC000FF90EF90DF90CF90BF90AF909F908F906C
:100CD0007F906F905F904F9008958F929F92AF9208
:100CE000BF92CF92DF92EF92FF92CF93DF93EC010E
:100CF000ECA0FDA0F7018385823008F069C0F8946C
:100D0000C70178DEF701C780D084E184F28478944B
:100D10002C8D3D8D4E8D5F8D68A179A18AA19BA1FF
:100D20000E94BC100E9424114B015C01C701B60156
:100D30000E94C2116B017C01288D398D4A8D5B8D1B
:100D4000C501B4010E94BC109B01AC01C701B601F2
:100D50000E9427116B017C016E857F85072E000C98
:100D6000880B990B0E94C2119B01AC01C701B6010F
:100D70000E94AF126B017C0178DD8C889D88AE8863
:100D8000BF88681979098A099B096536710581054B
:100D90009105D0F1288939894A895B89C701B60153
:100DA0000E94BB104B015C0120E030E0A9010E94D1
:100DB000AB1218167CF420E030E040EA50E4C501A4
:100DC000B4010E94AB12181694F01982188213C055
:100DD000F89498CF20E030E040EA50ECC501B4012F
:100DE0000E94201187FFF1CF8FEF9FEF02C081E0BB
:100DF00090E099838883C88AD98AEA8AFB8A35DD9C
:100E00006C8B7D8B8E8B9F8BC701B601DF91CF9151
:100E1000FF90EF90DF90CF90BF90AF909F908F901A
:100E200008952F923F924F925F926F927F928F928E
:100E30009F92AF92BF92CF92DF92EF92FF920F9369
:100E40001F93CF93DF93CDB7DEB76C970FB6F894AF
:100E5000DEBF0FBECDBFDC0112962C91222309F418
:100E60007BC29C8F8B8FFC018381948136DF0E9433
:100E70008F116F83788789879A87AB8DBC8D119688
:100E80008C9111978823B1F013960D911C91F80164
:100E9000808191818130910509F077C260E086817F
:100EA00052DB61E0D80118968C914DDB81E0EB8D2F
:100EB000FC8D8183AB8DBC8D11968C911197811126
:100EC0006CC215968D919C9108DF0E948F116B83E7
:100ED0007C838D839E832F81388549855A852B8716
:100EE0003C874D875E8757FF0BC0509540953095E6
:100EF00021953F4F4F4F5F4F2B873C874D875E8734
:100F00008B819C81AD81BE818F87988BA98BBA8B99
:100F1000B7FF0BC0B095A095909581959F4FAF4FAF
:100F2000BF4F8F87988BA98BBA8B8B859C85AD859E
:100F3000BE852F85388949895A89821B930BA40B5A
:100F4000B50BB7FF07C0B095A095909581959F4FC1
:100F5000AF4FBF4F9C01AD0166277727CB01621BC6
:100F6000730B840B950B0E94C211AB8DBC8D5B96ED
:100F70006D937D938D939C935E9791960D911C91AB
:100F8000F80180AD882309F4CDC06FDC6B8B7C8BBE
:100F90008D8B9E8BF80180A191A1A2A1B3A14B8959
:100FA0005C896D897E89481B590B6A0B7B0B84A574
:100FB00095A5A6A5B7A5481759076A077B0708F4A2
:100FC000B1C0028CF38DE02D80809180A280B3802F
:100FD000D8015E96ED91FC91A5019401608171812B
:100FE000828193810E94BB106F8B788F898F9A8F3B
:100FF000F80120893189428953890E94AF12D801B2
:1010000094962D913D914D915C9197970E94BC10C3
:101010006B017C01F801C4A2D5A2E6A2F7A2F4A953
:10102000F983D801D596BC91BA83F80126A837A8D0
:1010300029813B2FA1010E94AB1218160CF0B2C1FE
:1010400089819A81D101F80184A395A3A6A3B7A3AE
:10105000D8011C962D913D914D915C911F976F8900
:10106000788D898D9A8D0E94AF12F80124A135A147
:1010700046A157A10E94BC106B017C01D801989633
:101080002D913D914D915C919B97C501B4010E94BA
:10109000BB10F80124893589468957890E94AF120F
:1010A0009B01AC01C701B6010E94BB106B017C0122
:1010B0009B01AC0169817A81C1010E94201187FDE9
:1010C00019C0D801D096BC91B983F801F1A9FA836F
:1010D000D801D2962C90D297D3963C9029813F2F5D
:1010E000A101B601C7010E94201187FD03C0C9827A
:1010F000DA821701D8015C96ED91FC9189819A8181
:10110000D10180839183A283B383F80180A691A645
:10111000A2A6B3A62B893C894D895E8920A331A361
:1011200042A353A3EB8DFC8DC380D480878C90A009
:10113000B401092C000C880B990B0E94C2113B01D1
:101140005C01AB8DBC8D5796EC9057975896FC90F0
:10115000589759960C9159975A961C912B853C8516
:101160004D855E858F859889A989BA8928173907A1
:101170004A075B070CF42AC19701A801B301C50116
:101180000E94AB1287FF02C0730185019701A8017D
:10119000B301C501F0D70E948F11D6011D967C9333
:1011A0006E931C971A968C918BDAEB8DFC8DC58013
:1011B000D680078D10A1B801012E000C880B990B69
:1011C0000E94C2112B013C01AB8DBC8D57968C90B7
:1011D000579758969C9058975996AC9059975A960D
:1011E000BC906FEF70E0601B710B072E000C880B3A
:1011F000990B0E94C2117B018C019B01AC01B401CF
:10120000C5010E942011181614F074018501970180
:10121000A801C301B201B0D70E948F11F6017587F2
:10122000648782854DDAAB8DBC8D5B966D917D9127
:101230008D919C915E978DDC8CE237D9EB8DFC8D86
:10124000678D70A1072E000C880B990B0E94C211AC
:101250007B018C01AB8DBC8D5796AC9057975896FF
:10126000BC9058975996CC9059975A96DC90950116
:10127000A6010E94AB1287FF02C0570168019501C9
:10128000A601B701C80177D764DC8CE20ED9EB8DDB
:10129000FC8DE78CF0A0B7010F2C000C880B990B8C
:1012A0000E94C2114B015C01AB8DBC8D5796CC9056
:1012B00057975896DC90589759960C9159975A968B
:1012C0001C916FEF70E06E197F09072E000C880BE0
:1012D000990B0E94C2113B017C019B01AC01B6013C
:1012E000C801AED7181614F0360178019301A70192
:1012F000C501B40141D72DDC84E392E0DBDB2F8113
:10130000388549855A85213A3648414051054CF483
:101310002B813C814D815E81213A36484140510507
:10132000DCF0AB8DBC8D1396ED91FC91149704A06D
:10133000F5A1E02DF8941782108611861286789414
:101340001596ED91FC9104A0F5A1E02DF89417827B
:1013500010861186128678946C960FB6F894DEBFCC
:101360000FBECDBFDF91CF911F910F91FF90EF90F6
:10137000DF90CF90BF90AF909F908F907F906F90B5
:101380005F904F903F902F900895019609F08ECD79
:1013900061E08681D8D860E085CD1B821C821D82E9
:1013A0001E8299CDD801D0964D905D906D907C9025
:1013B000D397A3019201C701B60142D787FF48CE58
:1013C000F80144A255A266A277A242CE6FEF70E068
:1013D00068197909072E000C880B990BD3D72B01BC
:1013E0004C019701A8010E94AB1287FD02C02701A2
:1013F00048019301A501B201C401BED690D7F60100
:101400007587648782855CD9AB8DBC8D1596ED9010
:10141000FC9016975F966D917C91072E000C880BBF
:10142000990BB0D76B018C01EB8DFC8D8788908C6C
:10143000A18CB28C9401A5010E94AB1287FF02C05F
:10144000460158019401A501B601C80194D667D799
:10145000D7011D967C936E931C971A968C9130D968
:10146000EB8DFC8D638D748D858D968D905871DB21
:101470008CE21BD8AB8DBC8D5F96ED90FC90B701D4
:101480000F2C000C880B990B7DD74B015C01EB8D69
:10149000FC8DC788D08C018D128D6FEF70E06E19B6
:1014A0007F09072E000C880B990B6CD73B017C0140
:1014B0009B01AC01B601C801C3D6181614F0360161
:1014C00078019301A701C501B40156D642DB8CE235
:1014D0000E945502AB8DBC8D5F966D917C91072E5D
:1014E000000C880B990B4ED77B018C01EB8DFC8D8A
:1014F000A788B08CC18CD28C9501A6010E94AB123A
:1015000087FF02C0570168019501A601B701C80114
:1015100032D6F1CE1F920F920FB60F9211240BB656
:101520000F922F933F934F935F936F937F938F937C
:101530009F93AF93BF93EF93FF938DE492E00E944C
:10154000E701FF91EF91BF91AF919F918F917F91B3
:101550006F915F914F913F912F910F900BBE0F9024
:101560000FBE0F901F9018951F920F920FB60F92FB
:1015700011240BB60F922F938F939F93EF93FF93AA
:10158000E0915D02F0915E028081E0916302F09152
:10159000640282FD1DC09081809166028F5F8F730F
:1015A00020916702821741F0E0916602F0E0E35B70
:1015B000FD4F958F80936602FF91EF919F918F91E0
:1015C0002F910F900BBE0F900FBE0F901F9018958C
:1015D0008081F2CF1F920F920FB60F9211240BB69B
:1015E0000F922F933F934F935F936F937F938F93BC
:1015F0009F93AF93BF93EF93FF938AEE92E00E9485
:10160000E701FF91EF91BF91AF919F918F917F91F2
:101610006F915F914F913F912F910F900BBE0F9063
:101620000FBE0F901F9018951F920F920FB60F923A
:1016300011240BB60F922F938F939F93EF93FF93E9
:10164000E091FA02F091FB028081E0910003F091B9
:10165000010382FD1DC09081809103038F5F8F7312
:1016600020910403821741F0E0910303F0E0E6517A
:10167000FD4F958F80930303FF91EF919F918F9181
:101680002F910F900BBE0F900FBE0F901F901895CB
:101690008081F2CF1F920F920FB60F9211242F93D9
:1016A0003F938F939F93AF93BF9380914902909103
:1016B0004A02A0914B02B0914C023091480223E0C3
:1016C000230F2D3758F50196A11DB11D2093480217
:1016D0008093490290934A02A0934B02B0934C022C
:1016E0008091440290914502A0914602B091470238
:1016F0000196A11DB11D8093440290934502A093D1
:101700004602B0934702BF91AF919F918F913F9155
:101710002F910F900FBE0F901F90189526E8230F62
:101720000296A11DB11DD2CF1F920F920FB60F923C
:1017300011240BB60F922F933F934F935F936F93A8
:101740007F938F939F93AF93BF93EF93FF93E0911A
:101750000E02F0910F021995FF91EF91BF91AF9199
:101760009F918F917F916F915F914F913F912F91B9
:101770000F900BBE0F900FBE0F901F9018951F92E9
:101780000F920FB60F9211240BB60F922F933F9327
:101790004F935F936F937F938F939F93AF93BF9379
:1017A000EF93FF93E0910C02F0910D021995FF91D8
:1017B000EF91BF91AF919F918F917F916F915F91C9
:1017C0004F913F912F910F900BBE0F900FBE0F9036
:1017D0001F9018951F920F920FB60F9211240BB6FF
:1017E0000F922F933F934F935F936F937F938F93BA
:1017F0009F93AF93BF93EF93FF93E0910202F09119
:1018000003021995FF91EF91BF91AF919F918F9135
:101810007F916F915F914F913F912F910F900BBEF0
:101820000F900FBE0F901F9018951F920F920FB63A
:101830000F9211240BB60F922F933F934F935F9308
:101840006F937F938F939F93AF93BF93EF93FF9388
:10185000E0910002F09101021995FF91EF91BF9183
:10186000AF919F918F917F916F915F914F913F9138
:101870002F910F900BBE0F900FBE0F901F901895D9
:101880001F920F920FB60F9211240BB60F922F9347
:101890003F934F935F936F937F938F939F93AF93F8
:1018A000BF93EF93FF93E0910A02F0910B02199519
:1018B000FF91EF91BF91AF919F918F917F916F9128
:1018C0005F914F913F912F910F900BBE0F900FBEE4
:1018D0000F901F9018951F920F920FB60F92112420
:1018E0000BB60F922F933F934F935F936F937F931A
:1018F0008F939F93AF93BF93EF93FF93E091080271
:10190000F09109021995FF91EF91BF91AF919F91CD
:101910008F917F916F915F914F913F912F910F9098
:101920000BBE0F900FBE0F901F9018951F920F9235
:101930000FB60F9211240BB60F922F933F934F9334
:101940005F936F937F938F939F93AF93BF93EF9327
:10195000FF93E0910602F09107021995FF91EF9134
:10196000BF91AF919F918F917F916F915F914F91B7
:101970003F912F910F900BBE0F900FBE0F901F90B5
:1019800018951F920F920FB60F9211240BB60F925B
:101990002F933F934F935F936F937F938F939F9377
:1019A000AF93BF93EF93FF93E0910402F091050290
:1019B0001995FF91EF91BF91AF919F918F917F9179
:1019C0006F915F914F913F912F910F900BBE0F90B0
:1019D0000FBE0F901F901895823109F468C030F443
:1019E0008230E1F0833069F180E008958431D9F1EB
:1019F00008F44BC08531C1F770933D0260933C02FF
:101A00008BE495E090930502809304028091690035
:101A10008C7F816080936900E89A11C070933902CD
:101A20006093380285E595E090930102809300026F
:101A300080916A008C7F816080936A00EC9A81E0DB
:101A4000089570933B0260933A0280E595E090938D
:101A500003028093020280916A00837F84608093F6
:101A60006A00ED9AECCF70933F0260933E0286E4E9
:101A700095E0909307028093060280916900837F2E
:101A8000846080936900E99ADACF70934102609391
:101A9000400281E495E090930902809308028091CE
:101AA00069008F7C806180936900EA9AC8CF709347
:101AB0004302609342028CE395E090930B02809383
:101AC0000A02809169008F73806480936900EB9AA9
:101AD000B6CF0F931F93CF93DF93EC01062F142FF4
:101AE00062E0802F0E942F0362E0812F0E942F036B
:101AF000802F90E0FC01E05BFE4FE491F0E0EE0F00
:101B0000FF1FEE5FFE4FA591B491B983A883FC013E
:101B1000EA56FE4F24912C83812F90E0FC01E05B7C
:101B2000FE4FE491F0E0EE0FFF1FEE5FFE4F459198
:101B300054915B834A83FC01EA56FE4FE491ED83A6
:101B40001F82188619861A868BE39FE10197F1F7A9
:101B50008C91282391E009F490E0DA018C91E8233C
:101B600009F092609E83BE01802F36DF8B87BE0115
:101B7000812F32DF9B85890F8B87DF91CF911F915A
:101B80000F9108954F925F926F927F928F929F92E2
:101B9000AF92BF92CF92DF92EF92FF920F931F937B
:101BA000CF93DF935C013B014A01FC01108211825B
:101BB000128280E090E0A0E4B0E487839087A18760
:101BC000B28713861486158616861786108A118AA0
:101BD000128A138A148A158A168A178A108E118E11
:101BE000128E138E148E158E168E10A2178E89E308
:101BF00090E08AD5EC01C50147969D8F8C8F0496A5
:101C00009B8F8A8F08979F8F8E8F18AE18AA19AA5C
:101C10001AAA1BAA80E090E0AFE7B3E48CAB9DABBF
:101C2000AEABBFAB84E690E0A0E0B0E08CA79DA790
:101C3000AEA7BFA7198E188EC12CD12C76019701A3
:101C40008601B701A601CE010E9442040E9435041C
:101C5000CCA4DDA4EEA4FFA46C197D098E099F0914
:101C600068A379A38AA39BA3F501D2A3C1A374821D
:101C700063829682858288AD81112FC0EC8DFD8DA7
:101C800080809180A280B3808CA29DA2AEA2BFA2D0
:101C9000EA8DFB8D80819181A281B38188A799A76C
:101CA000AAA7BBA74CA85DA86EA87FA8A301920114
:101CB000C501B40150D418162CF44CA25DA26EA23A
:101CC0007FA20BC048A859A86AA87BA8A3019201CB
:101CD000C501B401B5D287FDF0CF81E088AFC7015F
:101CE000B6014ED39B01AC0160E070E080E89FE359
:101CF000AED26B017C01AC019B01688979898A892C
:101D00009B892DD4688B798B8A8B9B8BA70196013D
:101D10006C897D898E899F899AD26C8B7D8B8E8B05
:101D20009F8B81E090E0A0E0B0E08CA79DA7AEA7DC
:101D3000BFA7DF91CF911F910F91FF90EF90DF90A0
:101D4000CF90BF90AF909F908F907F906F905F905B
:101D50004F9008956F927F928F929F92AF92BF9211
:101D6000CF92DF92EF92FF920F931F93CF93DF9367
:101D7000EC01D62E672EC42E752E590119821882B9
:101D80001B821A821D821C821F821E82198618865F
:101D90001B861A861D861C8681E090E09F878E87B1
:101DA00080E090E0A0E8BFEB888B998BAA8BBB8B7F
:101DB0001C8A1D8A1E8A1F8A188E198E1A8E1B8EE7
:101DC0001C8E1D8E1E8E1F8E18A219A21AA21BA277
:101DD0008CE090E099D44C0140E060E07ADE9DA276
:101DE0008CA2DA826B82CC827D82BF82AE8219871E
:101DF0000887FB86EA868CE090E086D48C014C2D27
:101E00006D2D67DE1DA30CA30E9435046C8B7D8BAA
:101E10008E8B9F8B61E08E810E942F0361E088850D
:101E20000E942F0361E08A85DF91CF911F910F916E
:101E3000FF90EF90DF90CF90BF90AF909F908F90EA
:101E40007F906F900C942F03EF92FF920F931F934C
:101E5000EDE4F2E01382128248EE53E060E070E0BD
:101E600044835583668377838AE192E091838083FC
:101E700025ED30E03587248724ED30E0378726874D
:101E800020ED30E0318B208B21ED30E0338B228B45
:101E900022ED30E0358B248B26ED30E0378B268B1E
:101EA000118E128E138E148EEAEEF2E013821282DD
:101EB00044835583668377839183808385EC90E0A8
:101EC0009587848784EC90E09787868780EC90E004
:101ED000918B808B81EC90E0938B828B82EC90E0F5
:101EE000958B848B86EC90E0978B868B118E128E6F
:101EF000138E148E8BE0E82EF12C09E010E02AE01E
:101F000030E04DE050E063E170E085E894E022DFEE
:101F100094E0E92EF12C06E010E027E030E045E007
:101F200050E062E170E08FE594E014DF22E0E22E01
:101F3000F12C06E110E027E130E04AE150E064E1F5
:101F400070E089E394E006DF33E0E32EF12C01E258
:101F500010E02FE130E049E150E065E170E083E11D
:101F600094E0F8DE49E354E063E174E080EF93E04D
:101F700009DE4FE554E065E874E08DEC93E002DEA5
:101F800045E854E069E374E08AEA93E0FBDD43E16D
:101F900054E06FE574E087E893E01F910F91FF90A4
:101FA000EF90F0CD789484B5826084BD84B5816073
:101FB00084BD85B5826085BD85B5816085BD809114
:101FC0006E00816080936E0010928100809181008C
:101FD0008260809381008091810081608093810084
:101FE000809180008160809380008091B100846046
:101FF0008093B1008091B00081608093B0008091A7
:102000009100826080939100809191008160809323
:102010009100809190008160809390008091A10058
:1020200082608093A1008091A10081608093A100D3
:102030008091A00081608093A00080912101826046
:102040008093210180912101816080932101809101
:10205000200181608093200180917A0084608093C8
:102060007A0080917A00826080937A0080917A0071
:10207000816080937A0080917A00806880937A00F2
:102080001092C1008AEE92E00E9444018DE492E039
:102090000E944401C12CD12C80E8E82E8FE3F82E59
:1020A00097018601B701A601809111049091120455
:1020B0000E9442049701B701A6018091EE0390911E
:1020C000EF030E9442049701B701A6018091CB0360
:1020D0009091CC030E9442049701B701A601809120
:1020E000A8039091A9030E94420486E990E090938E
:1020F000100480930F049093ED038093EC0390936E
:10210000CA038093C9039093A7038093A60380EF2B
:1021100093E00E94DF048DEC93E00E94DF048AEAE2
:1021200093E00E94DF0487E893E00E94DF0481E0EF
:102130008093F2038093CF038093AC038093890351
:102140008093F1038093CE038093AB038093880345
:1021500080EF93E00E9411078DEC93E00E9411073D
:102160008AEA93E00E94110787E893E00E94110732
:102170000E947802EDCF5058BB27AA270ED0A0C1ED
:1021800069D130F06ED120F031F49F3F11F41EF48C
:102190005EC10EF4E095E7FB54C1E92FB3D180F3A3
:1021A000BA17620773078407950718F071F49EF554
:1021B000CBC10EF4E0950B2EBA2FA02D0B01B90167
:1021C00090010C01CA01A0011124FF27591B99F0AD
:1021D000593F50F4503E68F11A16F040A22F232FB9
:1021E000342F4427585FF3CF469537952795A79509
:1021F000F0405395C9F77EF41F16BA0B620B730BB0
:10220000840BBAF09150A1F0FF0FBB1F661F771F20
:10221000881FC2F70EC0BA0F621F731F841F48F4D5
:10222000879577956795B795F7959E3F08F0B3CF5B
:102230009395880F08F09927EE0F97958795089545
:10224000DCD008F481E0089514D1E3954AC10CD0A4
:1022500037C107D140F0FED030F021F45F3F19F0D4
:10226000F0C0511172C1F3C04DD198F39923C9F355
:102270005523B1F3951B550BBB27AA27621773078C
:10228000840738F09F5F5F4F220F331F441FAA1F40
:10229000A9F333D00E2E3AF0E0E830D09150504000
:1022A000E695001CCAF729D0FE2F27D0660F771FAE
:1022B000881FBB1F261737074807AB07B0E809F090
:1022C000BB0B802DBF01FF2793585F4F2AF09E3F25
:1022D000510568F0B6C039C15F3FECF3983EDCF3BE
:1022E000869577956795B795F7959F5FC9F7880F9E
:1022F000911D9695879597F90895E1E0660F771FF0
:10230000881FBB1F621773078407BA0720F0621B80
:10231000730B840BBA0BEE1F88F7E095089504D079
:102320006894B11112C10895F5D088F09F5790F0CC
:10233000B92F9927B751A0F0D1F0660F771F881FEA
:10234000991F1AF0BA95C9F712C0B13081F0FCD0CC
:10235000B1E00895F9C0672F782F8827B85F39F06A
:10236000B93FCCF3869577956795B395D9F73EF449
:1023700090958095709561957F4F8F4F9F4F0895F1
:10238000E89409C097FB3EF490958095709561950F
:102390007F4F8F4F9F4F9923A9F0F92F96E9BB27C5
:1023A0009395F695879577956795B795F111F8CF41
:1023B000FAF4BB0F11F460FF1BC06F5F7F4F8F4FAC
:1023C0009F4F16C0882311F096E911C0772321F0A2
:1023D0009EE8872F762F05C0662371F096E8862F3A
:1023E00070E060E02AF09A95660F771F881FDAF791
:1023F000880F9695879597F90895990F0008550FBE
:10240000AA0BE0E8FEEF16161706E807F907C0F07A
:1024100012161306E407F50798F0621B730B840B82
:10242000950B39F40A2661F0232B242B252B21F45C
:1024300008950A2609F4A140A6958FEF811D811DFC
:10244000089597F99F6780E870E060E008959FEF36
:1024500080EC089500240A9416161706180609063B
:10246000089500240A94121613061406050608950A
:10247000EECF50D0E8F3E894E0E0BB279F57F0F0B0
:102480002AED3FE049EC06C0EE0FBB0F661F771F39
:10249000881F28F0B23A62077307840728F0B25AFF
:1024A000620B730B840BE3959A9572F7803830F4C6
:1024B0009A95BB0F661F771F881FD2F79048B8C048
:1024C000092E0394000C11F4882352F0BB0F40F442
:1024D000BF2B11F460FF04C06F5F7F4F8F4F9F4F82
:1024E0000895EF93E0FF06C0A2EA2AED3FE049EC31
:1024F0005FEB53DEE5DF0F90039401FC9058E4EEB0
:10250000F0E0A2C057FD9058440F551F59F05F3FAF
:1025100071F04795880F97FB991F61F09F3F79F005
:1025200087950895121613061406551FF2CF469587
:10253000F1DF08C0161617061806991FF1CF869509
:102540007105610508940895E894BB2766277727ED
:10255000CB0197F9089551DF08F48FEF08950BD060
:10256000AFCF78DF28F07DDF18F0952309F069CF31
:102570006ECF1124EACFC6DFA0F3959FD1F3950F5C
:1025800050E0551F629FF001729FBB27F00DB11DF7
:10259000639FAA27F00DB11DAA1F649F6627B00D87
:1025A000A11D661F829F2227B00DA11D621F739F70
:1025B000B00DA11D621F839FA00D611D221F749F7E
:1025C0003327A00D611D231F849F600D211D822FC5
:1025D000762F6A2F11249F5750408AF0E1F088230C
:1025E0004AF0EE0FFF1FBB1F661F771F881F915019
:1025F0005040A9F79E3F510570F023CFA6CF5F3F13
:10260000ECF3983EDCF3869577956795B795F7954B
:10261000E7959F5FC1F7FE2B880F911D96958795D3
:1026200097F90895EADE880B990B08959F3F31F0E2
:10263000915020F4879577956795B795880F911DF0
:102640009695879597F908959F938F937F936F93AE
:10265000FF93EF939B01AC0182DFEF91FF9105D0D7
:102660002F913F914F915F917ACFDF93CF931F933B
:102670000F93FF92EF92DF927B018C01689405C06B
:10268000DA2EEF0178DFFE01E894A59125913591CE
:1026900045915591AEF3EF0180DDFE019701A80150
:1026A000DA9479F7DF90EF90FF900F911F91CF911F
:1026B000DF910895A1E21A2EAA1BBB1BFD010DC0DC
:1026C000AA1FBB1FEE1FFF1FA217B307E407F507E2
:1026D00020F0A21BB30BE40BF50B661F771F881FBE
:1026E000991F1A9469F760957095809590959B0154
:1026F000AC01BD01CF010895EE0FFF1F881F8BBFF6
:102700000790F691E02D19940F931F93CF93DF93C9
:102710008230910510F482E090E0E091AD04F091F8
:10272000AE0430E020E0B0E0A0E0309799F421154D
:10273000310509F44AC0281B390B24303105D8F57E
:102740008A819B816115710589F1FB0193838283E5
:10275000FE0111C040815181028113814817590740
:10276000E0F04817590799F4109761F012960C930E
:10277000129713961C933296CF01DF91CF911F9140
:102780000F9108950093AD041093AE04F4CF21157A
:10279000310551F04217530738F0A901DB019A01C6
:1027A000BD01DF01F801C1CFEF01F9CF9093AE0475
:1027B0008093AD04CDCFFE01E20FF31F819391937F
:1027C0002250310939832883D7CF2091AB0430912F
:1027D000AC04232B41F42091120230911302309368
:1027E000AC042093AB04209110023091110221150A
:1027F000310541F42DB73EB74091140250911502B6
:10280000241B350BE091AB04F091AC04E217F30705
:10281000A0F42E1B3F0B2817390778F0AC014E5F50
:102820005F4F2417350748F04E0F5F1F5093AC04DD
:102830004093AB04819391939FCFF0E0E0E09CCF75
:10284000CF93DF930097E9F0FC0132971382128255
:10285000A091AD04B091AE04ED0130E020E01097FE
:10286000A1F420813181820F931F2091AB0430911C
:10287000AC042817390709F061C0F093AC04E09369
:10288000AB04DF91CF910895EA01CE17DF07E8F599
:102890004A815B819E0141155105B1F7E901FB8336
:1028A000EA8349915991C40FD51FEC17FD0761F4D4
:1028B000808191810296840F951FE9019983888315
:1028C000828193819B838A83F0E0E0E012968D9170
:1028D0009C9113970097B9F52D913C911197CD01DB
:1028E0000296820F931F2091AB043091AC042817FD
:1028F000390739F6309751F51092AE041092AD04B5
:10290000B093AC04A093AB04BCCFD383C28340810B
:102910005181840F951FC817D90761F44E5F5F4F2F
:1029200088819981480F591F518340838A819B81F7
:10293000938382832115310509F0B0CFF093AE0463
:10294000E093AD049ECFFD01DC01C0CF1382128263
:06295000D7CFF894FFCF81
:102956004104410441044104410441044104410449
:102966000000AF0480000000000009026B0198011E
:102976005902C901A701BB016E616E00696E66004E
:082986006F7666000D0A0000E7
:020000023000CC
:10E000000D9489F10D94B2F10D94B2F10D94B2F129
:10E010000D94B2F10D94B2F10D94B2F10D94B2F1F0
:10E020000D94B2F10D94B2F10D94B2F10D94B2F1E0
:10E030000D94B2F10D94B2F10D94B2F10D94B2F1D0
:10E040000D94B2F10D94B2F10D94B2F10D94B2F1C0
:10E050000D94B2F10D94B2F10D94B2F10D94B2F1B0
:10E060000D94B2F10D94B2F10D94B2F10D94B2F1A0
:10E070000D94B2F10D94B2F10D94B2F10D94B2F190
:10E080000D94B2F10D94B2F10D94B2F10D94B2F180
:10E090000D94B2F10D94B2F10D94B2F10D94B2F170
:10E0A0000D94B2F10D94B2F10D94B2F10D94B2F160
:10E0B0000D94B2F10D94B2F10D94B2F10D94B2F150
:10E0C0000D94B2F10D94B2F10D94B2F10D94B2F140
:10E0D0000D94B2F10D94B2F10D94B2F10D94B2F130
:10E0E0000D94B2F141546D656761323536300041AF
:10E0F000726475696E6F206578706C6F72657220DE
:10E1000073746B3530305632206279204D4C530099
:10E11000426F6F746C6F616465723E004875683F52
:10E1200000436F6D70696C6564206F6E203D200048
:10E130004350552054797065202020203D20005FF9
:10E140005F4156525F415243485F5F3D2000415658
:10E1500052204C696243205665723D20004743437C
:10E160002056657273696F6E203D20004350552024
:10E1700049442020202020203D20004C6F7720663D
:10E18000757365202020203D20004869676820665F
:10E190007573652020203D200045787420667573D6
:10E1A00065202020203D20004C6F636B2066757336
:10E1B000652020203D20004D617220203720323024
:10E1C000313300312E362E3800342E332E350056A2
:10E1D00023202020414444522020206F7020636F70
:10E1E00064652020202020696E73747275637469E1
:10E1F0006F6E2061646472202020496E74657272B3
:10E20000757074006E6F20766563746F7200726A49
:10E210006D702020006A6D70200057686174207056
:10E220006F72743A00506F7274206E6F7420737541
:10E2300070706F72746564004D7573742062652030
:10E2400061206C6574746572002000577269747483
:10E25000696E672045450052656164696E672045B7
:10E26000450045452065727220636E743D00504F35
:10E27000525400303D5A65726F2061646472003FF1
:10E280003D43505520737461747300403D454550C3
:10E29000524F4D207465737400423D426C696E6B41
:10E2A000204C454400453D44756D70204545505215
:10E2B0004F4D00463D44756D7020464C415348001B
:10E2C000483D48656C70004C3D4C69737420492F83
:10E2D0004F20506F72747300513D51756974005234
:10E2E0003D44756D702052414D00563D73686F7707
:10E2F00020696E7465727275707420566563746FF0
:10E30000727300593D506F727420626C696E6B00BD
:10E310002A0011241FBECFEFD1E2DEBFCDBF01E046
:10E320000CBF12E0A0E0B2E0EEE1FDEF03E00BBFB6
:10E3300002C007900D92A030B107D9F712E0A0E01B
:10E34000B2E001C01D92AE30B107E1F70F9460F367
:10E350000D948DFE01E20EBF0FEF0DBF11241FBE05
:10E360000D9460F30D9400F020E030E040ED57E0B4
:10E3700005C0FA013197F1F72F5F3F4F2817390792
:10E38000C0F308959C01260F311DC901A0E0B0E043
:10E390002F5F3F4FABBFFC018791882361F08093D3
:10E3A000C6008091C00086FFFCCF8091C0008064D1
:10E3B0008093C000EACF08958DE08093C6008091DD
:10E3C000C00086FFFCCF8091C00080648093C000B5
:10E3D0008AE08093C6008091C00086FFFCCF8091C8
:10E3E000C00080648093C00008950F94C2F10F9420
:10E3F000DCF10895FC019081992359F09093C600B7
:10E400008091C00086FFFCCF8091C0008064809323
:10E41000C0003196992379F70895282F982F929567
:10E420009F70892F805D8A3308F0895F8093C600D2
:10E430008091C00086FFFCCF8091C00080648093F3
:10E44000C000822F8F70982F905D9A3308F0995FEB
:10E450009093C6008091C00086FFFCCF8091C000E1
:10E4600080648093C00008959C01FB01853691056E
:10E470001CF46330710594F0C90164E670E00F94F8
:10E480002EFE605D7F4F6093C6008091C00086FFC6
:10E49000FCCF8091C00080648093C0002B30310598
:10E4A00014F43297B4F0C90164E670E00F942EFEC4
:10E4B0006AE070E00F942EFE605D7F4F6093C600AF
:10E4C0008091C00086FFFCCF8091C0008064809363
:10E4D000C000C9016AE070E00F942EFEC0968093E0
:10E4E000C6008091C00086FFFCCF8091C000806490
:10E4F0008093C00008951F93182F8EE692EE60E07F
:10E500000F94C2F11093C6008091C00086FFFCCF2B
:10E510008091C00080648093C0000F94DCF11F9153
:10E5200008952F923F924F925F926F927F928F92B7
:10E530009F92AF92BF92CF92DF92EF92FF920F9392
:10E540001F93DF93CF93CDB7DEB762970FB6F894E2
:10E55000DEBF0FBECDBF382E622ECA01DB015C01CB
:10E560006D01772420E2222E2E010894411C511CBB
:10E570008BC081E0A81680E0B80681E0C80680E084
:10E58000D80628F0C601AA27BB270F940DF2BB2797
:10E59000AD2D9C2D8B2D0F940DF28A2D0F940DF225
:10E5A0002092C6008091C00086FFFCCF8091C00001
:10E5B00080648093C0009DE29093C6008091C0006B
:10E5C00086FFFCCF8091C00080648093C0002092C1
:10E5D000C6008091C00086FFFCCF8091C00080649F
:10E5E0008093C00019828601750188249924A1E0D6
:10E5F0003A1651F03A1620F0B2E03B1661F409C029
:10E600000BBFF701779007C0C7010F9477FE782EF4
:10E6100002C0F7017080872D0F940DF22092C60082
:10E620008091C00086FFFCCF8091C0008064809301
:10E63000C000872D8052F401EF70F0708F3520F408
:10E64000E40DF51D708204C0E40DF51D8EE280839B
:10E650000894E11CF11C011D111D0894811C911CE2
:10E6600090E18916910409F0C2CF80E190E0A0E02A
:10E67000B0E0A80EB91ECA1EDB1E198AC2010F9493
:10E68000FAF10F94DCF16A94662009F072CF629679
:10E690000FB6F894DEBF0FBECDBFCF91DF911F91B3
:10E6A0000F91FF90EF90DF90CF90BF90AF909F9031
:10E6B0008F907F906F905F904F903F902F90089534
:10E6C0002F923F924F925F926F927F928F929F9282
:10E6D000AF92BF92CF92DF92EF92FF920F931F9370
:10E6E000DF93CF93CDB7DEB7CD53D1400FB6F894BB
:10E6F000DEBF0FBECDBF01E20EBF0FEF0DBF94B75F
:10E70000F894A89514BE80916000886180936000A1
:10E7100010926000789493FF05C0E0910002F091A0
:10E7200001021995279A2F9A8091C00082608093E8
:10E73000C00080E18093C40088E18093C1000000A4
:10E74000EE24FF24870144E0A42EB12CCC24DD2448
:10E7500024C0C5010197F1F70894E11CF11C011DCB
:10E76000111D21E2E2162EE4F20620E0020720E06D
:10E77000120718F031E0C32ED12CC801B70127ECE5
:10E780003BE140E050E00F9441FE611571058105C9
:10E79000910519F485B1805885B98091C00087FD35
:10E7A00003C0C114D104A9F2A6014F5F5F4FC25E3E
:10E7B000DE4F59834883CE51D140C25EDE4F8881FF
:10E7C0009981CE51D140019711F00D9410FEC05D9A
:10E7D000DE4F19821882C053D14060E0C15DDE4F28
:10E7E0001882CF52D14088249924C35DDE4F19820C
:10E7F0001882CD52D140C05EDE4F188219821A8233
:10E800001B82C052D140CE5CDE4F188219821A8220
:10E810001B82C253D140EE24FF2487010BBFF701B6
:10E8200007911691C45CDE4F19830883CC53D14005
:10E830000D940BFEC25EDE4F28813981CE51D1404E
:10E840002130310509F52091C600C25EDE4F1982E4
:10E850001882CE51D14022C02F5F3F4F4F4F5F4FA4
:10E86000213082E138078AE7480780E0580780F0C6
:10E87000C45CDE4FE881F981CC53D140EF5FFF4F9C
:10E8800019F0EE27FF27099420E030E040E050E047
:10E890008091C00087FFE0CF2091C600C35DDE4FAE
:10E8A00048815981CD52D1404F5F5F4FC35DDE4FEC
:10E8B00059834883CD52D140213209F063C64A3092
:10E8C000510508F05FC60894811C911C53E0851621
:10E8D000910409F059C600E010E018C081E280936D
:10E8E000C6008091C00086FFFCCF8091C00080648C
:10E8F0008093C0002F5F3F4F2931310579F70F9486
:10E90000DCF10F5F1F4F0530110519F020E030E0FA
:10E91000E5CF10920A0210920B0210920C02109294
:10E920000D02109206021092070210920802109235
:10E930000902109202021092030210920402109235
:10E9400005028FEE90EE60E00F94F5F180E191EE1C
:10E9500060E00F94C2F18091C00087FFFCCF9091DE
:10E96000C600903608F09F759032B8F09093C600BC
:10E970008091C00086FFFCCF8091C00080648093AE
:10E98000C000A0E2A093C6008091C00086FFFCCF2B
:10E990008091C00080648093C000983409F4D7C18E
:10E9A0009934B8F4923409F459C1933458F490333B
:10E9B00019F1903308F4E3C59F33A1F1903409F0C5
:10E9C000DEC5BDC0953409F470C1963409F0D7C5D1
:10E9D00098C1923509F42BC2933538F49C3409F46C
:10E9E000F5C1913509F0CBC518C2963509F445C279
:10E9F000993509F0C4C567C483E792EE62E00F94CD
:10EA0000F5F110920602109207021092080210927D
:10EA1000090210920A0210920B0210920C0210923C
:10EA20000D0213C18FE792EE62E00F94F5F18FEEC5
:10EA300090EE60E00F94F5F181E291EE60E00F94CA
:10EA4000C2F187EB91EE60E00F94F5F180E391EE77
:10EA500060E00F94C2F184EE90EE60E00F94F5F167
:10EA60008FE391EE60E00F94C2F186E090E061E008
:10EA700070E00F9434F20F94DCF18DE591EE60E0DC
:10EA80000F94C2F189EC91EE60E00F94F5F18EE401
:10EA900091EE60E00F94C2F183EC91EE60E00F9490
:10EAA000F5F18CE691EE60E00F94C2F18EE10F94E7
:10EAB0000DF288E90F940DF281E00F940DF20F949E
:10EAC000DCF18BE791EE60E00F94C2F119E0E0E039
:10EAD000F0E010935700E4918E2F0F940DF20F94F5
:10EAE000DCF18AE891EE60E00F94C2F1E3E0F0E03F
:10EAF00010935700E4918E2F0F940DF20F94DCF1D8
:10EB000089E991EE60E00F94C2F1E2E0F0E0109349
:10EB10005700E4918E2F0F940DF20F94DCF188EAE8
:10EB200091EE60E00F94C2F1E1E0F0E01093570045
:10EB30001491812F0F940DF20F94DCF107CF8BE825
:10EB400092EE62E00F94F5F18BE492EE60E00F94A8
:10EB5000F5F10F94DCF100E010E019C0C8016F2D51
:10EB60000F947FFEFF2031F489E492EE60E00F9471
:10EB7000C2F10BC0F092C6008091C00086FFFCCFAE
:10EB80008091C00080648093C0000F5F1F4FC80158
:10EB900081519F41A0E0B0E0ABBFFC01F790BAE229
:10EBA000FB1621F0E2E000301E07C1F60F94DCF105
:10EBB0000F94DCF187E592EE60E00F94F5F10F948D
:10EBC000DCF1CC24DD2400E010E01EC0C8010F946D
:10EBD00077FEF82E882331F489E492EE60E00F94FA
:10EBE000C2F10BC08093C6008091C00086FFFCCFAD
:10EBF0008091C00080648093C000FE1419F00894D6
:10EC0000C11CD11C0F5F1F4FC80181519F41A0E063
:10EC1000B0E0ABBFFC01E790FAE2EF1621F022E092
:10EC20000030120799F60F94DCF10F94DCF182E6C4
:10EC300092EE60E00F94C2F1C60161E070E00F94C3
:10EC400034F20F94DCF10F94DCF110920202109276
:10EC50000302109204021092050278CE89E992EE26
:10EC600062E00F94F5F1279A2F9A16C02F9880E052
:10EC700090E0E0EDF7E03197F1F7019684369105E9
:10EC8000C1F72F9A80E090E0E0EDF7E03197F1F7DF
:10EC9000019684369105C1F78091C00087FFE6CFC9
:10ECA0008091C00087FFFCCF64C485EA92EE62E0E9
:10ECB0000F94F5F140910202509103026091040219
:10ECC0007091050281E020E10F9491F2809102029F
:10ECD00090910302A0910402B091050280509F4FD1
:10ECE000AF4FBF4F8093020290930302A0930402A0
:10ECF000B093050280509041A040B04008F426CE69
:10ED0000A4CF83EB92EE62E00F94F5F140910602FE
:10ED100050910702609108027091090280E020E1A1
:10ED20000F9491F28091060290910702A09108023F
:10ED3000B091090280509F4FAF4FBF4F80930602A2
:10ED400090930702A0930802B0930902FFCD80ECD4
:10ED500092EE62E00F94F5F183E792EE60E00F949B
:10ED6000F5F18FE792EE60E00F94F5F18BE892EE0B
:10ED700060E00F94F5F189E992EE60E00F94F5F10F
:10ED800085EA92EE60E00F94F5F183EB92EE60E09D
:10ED90000F94F5F180EC92EE60E00F94F5F187ECC2
:10EDA00092EE60E00F94F5F188ED92EE60E00F9442
:10EDB000F5F18FED92EE60E00F94F5F18AEE92EEB0
:10EDC00060E00F94F5F183E093EEBDCD87EC92EE19
:10EDD00062E00F94F5F181E40F947BF282E40F94EA
:10EDE0007BF283E40F947BF284E40F947BF285E45E
:10EDF0000F947BF286E40F947BF287E40F947BF20E
:10EE000088E40F947BF28AE40F947BF28BE40F94F6
:10EE10007BF28CE40F947BF299CD88ED92EE62E068
:10EE20000F94F5F1772473948824992409C48FED05
:10EE300092EE62E00F94F5F140910A0250910B02BC
:10EE400060910C0270910D0282E020E10F9491F22A
:10EE500080910A0290910B02A0910C02B0910D02D8
:10EE600080509F4FAF4FBF4F80930A0290930B0289
:10EE7000A0930C02B0930D0269CD8AEE92EE62E08F
:10EE80000F94F5F184EE90EE60E00F94F5F18FECC5
:10EE900091EE60E00F94F5F1662477244301CC5D98
:10EEA000DE4F19821882C452D140D401C301B695F5
:10EEB000A79597958795CA5DDE4F88839983AA8326
:10EEC000BB83C652D140CC5DDE4FA881B981C4520C
:10EED000D1401196CC5DDE4FB983A883C452D14096
:10EEE000CD0162E070E00F9434F2B0E2B093C6005E
:10EEF0008091C00086FFFCCF8091C0008064809329
:10EF0000C000EDE2E093C6008091C00086FFFCCF18
:10EF10008091C00080648093C000F0E2F093C6004E
:10EF20008091C00086FFFCCF8091C00080648093F8
:10EF3000C000CA5DDE4FE880F9800A811B81C6529D
:10EF4000D140BB27A12F902F8F2D0F940DF2CA5DBA
:10EF5000DE4F8881C652D1400F940DF2B0E2FB2EF5
:10EF6000F092C6008091C00086FFFCCF8091C00067
:10EF700080648093C0000DE30093C6008091C000C0
:10EF800086FFFCCF8091C00080648093C00010E2B7
:10EF90001093C6008091C00086FFFCCF8091C00016
:10EFA00080648093C0008BBEF3012791C65DDE4F65
:10EFB0002883CA52D140A22EBB24CC24DD2408943D
:10EFC000611C711C811C911C8BBEF3018791282E42
:10EFD0003324442455240894611C711C811C911C09
:10EFE0008BBEF3013791C55DDE4F3883CB52D140E4
:10EFF0000894611C711C811C911C8BBEF30147910C
:10F00000C45DDE4F4883CC52D140ADEFEA2EAFEF66
:10F01000FA2EAFEF0A2FAFEF1A2F6E0C7F1C801E57
:10F02000911E142D032DF22CEE24EA0CFB1C0C1D5A
:10F030001D1D0F940DF220E22093C6008091C000A8
:10F0400086FFFCCF8091C00080648093C000C65DC5
:10F05000DE4F8881CA52D1400F940DF230E23093D6
:10F06000C6008091C00086FFFCCF8091C000806404
:10F070008093C000C45DDE4F8881CC52D1400F9494
:10F080000DF240E24093C6008091C00086FFFCCFA5
:10F090008091C00080648093C000C55DDE4F888190
:10F0A000CB52D1400F940DF250E25093C6008091A4
:10F0B000C00086FFFCCF8091C00080648093C000B8
:10F0C0008FEFE8168FEFF80680E0080780E018075A
:10F0D00031F484E092EE60E00F94C2F1DFC0D80119
:10F0E000C7018070907CA070B0708050904CA040A0
:10F0F000B040D1F52FEF3FE340E050E0E222F322B1
:10F1000004231523CA5DDE4FA880B980CA80DB8046
:10F11000C652D140AE0CBF1CC01ED11EAA0CBB1CD7
:10F12000CC1CDD1C8EE092EE60E00F94C2F1BB2798
:10F13000A12F902F8F2D0F940DF28E2D0F940DF285
:10F1400030E23093C6008091C00086FFFCCF8091F2
:10F15000C00080648093C0004EE34093C60080915D
:10F16000C00086FFFCCF87C08EE09EEFA0E0B0E03D
:10F17000E822F9220A231B239CE0E91694E9F90608
:10F1800090E0090790E0190709F088C0C45DDE4FE0
:10F19000A881CC52D140EA2EFF2400E010E0102FCD
:10F1A0000F2DFE2CEE24C55DDE4FB881CB52D14031
:10F1B000EB0EF11C011D111DD601C501817090706F
:10F1C000A070B070DC0199278827E80EF91E0A1F8D
:10F1D0001B1F20EF30E040E050E0A222B322C42207
:10F1E000D52241E1AA0CBB1CCC1CDD1C4A95D1F7F1
:10F1F000EA0CFB1C0C1D1D1D81E090E0A0E0B0E0BE
:10F20000282239224A225B2235E1220C331C441C7D
:10F21000551C3A95D1F7E20CF31C041D151D57013E
:10F220006801AA0CBB1CCC1CDD1C85E192EE60E0E1
:10F230000F94C2F1C801AA27BB270F940DF2BB2778
:10F24000A12F902F8F2D0F940DF28E2D0F940DF274
:10F2500090E29093C6008091C00086FFFCCF809121
:10F26000C00080648093C000AEE3A093C60080918C
:10F27000C00086FFFCCF8091C00080648093C000F6
:10F28000C601AA27BB270F940DF2BB27AD2D9C2DDD
:10F290008B2D0F940DF28A2D0F940DF20F94DCF14B
:10F2A000CC5DDE4FE881F981C452D140F99709F471
:10F2B0004DCBF4E0EF2EF12C012D112D6E0C7F1CA7
:10F2C000801E911EF2CD83E093EE62E00F94F5F183
:10F2D0008AE192EE60E00F94C2F18091C00087FF56
:10F2E000FCCF1091C6001F751093C6008091C0001E
:10F2F00086FFFCCF8091C00080648093C0000F9493
:10F30000DCF1812F81548A3108F036C1163409F4BA
:10F3100095C0173490F4133409F44EC0143430F40B
:10F320001134F1F0123409F01DC130C0143409F465
:10F3300059C0153409F016C16BC01A3409F4C4C0A1
:10F340001B3438F4173409F48FC0183409F00AC19B
:10F35000A1C01B3409F4D2C01C3409F003C1E8C0B9
:10F360008FEF81B90DC082B1809582B980E090E0C5
:10F37000E0EDF7E03197F1F70196883C9105C1F790
:10F380008091C00087FFEFCF12B8EFC08FEF84B934
:10F390000DC085B1809585B980E090E0E0EDF7E0A3
:10F3A0003197F1F70196883C9105C1F78091C00033
:10F3B00087FFEFCF15B8D9C08FEF87B90DC088B1DF
:10F3C000809588B980E090E0E0EDF7E03197F1F7C3
:10F3D0000196883C9105C1F78091C00087FFEFCF6F
:10F3E00018B8C3C08FEF8AB90DC08BB180958BB9A7
:10F3F00080E090E0E0EDF7E03197F1F70196883C8E
:10F400009105C1F78091C00087FFEFCF1BB8ADC059
:10F410008FEF8DB90DC08EB180958EB980E090E0F0
:10F42000E0EDF7E03197F1F70196883C9105C1F7DF
:10F430008091C00087FFEFCF1EB897C08FEF80BBD1
:10F440000DC081B3809581BB80E090E0E0EDF7E0F6
:10F450003197F1F70196883C9105C1F78091C00082
:10F4600087FFEFCF11BA81C08FEF83BB0DC084B38C
:10F47000809584BB80E090E0E0EDF7E03197F1F714
:10F480000196883C9105C1F78091C00087FFEFCFBE
:10F4900014BA6BC08FEF809301010FC080910201FD
:10F4A00080958093020180E090E0E0EDF7E03197F5
:10F4B000F1F70196883C9105C1F78091C00087FF64
:10F4C000EDCF1092020151C08FEF809304010FC065
:10F4D0008091050180958093050180E090E0E0ED4A
:10F4E000F7E03197F1F70196883C9105C1F78091DB
:10F4F000C00087FFEDCF1092050137C08FEF8093DA
:10F5000007010FC08091080180958093080180E079
:10F5100090E0E0EDF7E03197F1F70196883C910536
:10F52000C1F78091C00087FFEDCF109208011DC088
:10F530008FEF80930A010FC080910B01809580931B
:10F540000B0180E090E0E0EDF7E03197F1F70196F4
:10F55000883C9105C1F78091C00087FFEDCF1092E4
:10F560000B0103C085E292EEEEC98091C00087FFD7
:10F57000FCCF8091C600EAC988E392EEE4C98CE131
:10F5800091EEE1C988249924933011F1943028F444
:10F59000913089F09230B8F408C0953061F195301F
:10F5A000F0F0963009F048C043C02B3109F042C951
:10F5B00091E06BE13FC96227C15DDE4F2883CF52E6
:10F5C000D14092E037C9B22FA0E0622793E032C960
:10F5D000822F90E0A82BB92B622794E02BC92E3004
:10F5E00009F039C3622795E0C05DDE4F19821882A9
:10F5F000C053D1401FC9E1E0F0E0EC0FFD1FC05D3A
:10F60000DE4F08811981C053D140E00FF11F2083E4
:10F610000F5F1F4FC05DDE4F19830883C053D14079
:10F6200062270A171B0709F005C9D80196E002C92D
:10F63000261709F010C303C0973009F0FBC87724E0
:10F640009981933109F412C19431C8F4963009F4C8
:10F65000D8C0973050F4923009F406C1933009F4C1
:10F660006DC0913009F059C253C0913109F477C08F
:10F67000923108F0BBC0903109F04FC2F5C098310B
:10F6800009F487C0993150F4953109F4EFC09531F0
:10F6900008F4C6C1963109F040C2C2C19A3109F4DA
:10F6A0006CC09A3108F491C09B3109F45BC09D3164
:10F6B00009F033C29D81903359F48F81882311F46E
:10F6C0009EE11CC0813011F091E018C098E916C08D
:10F6D000892F807591F0903539F4E0E0F0E089E011
:10F6E0008093570094910AC0983539F4E3E0F0E034
:10F6F00089E080935700949101C090E01A821B82A8
:10F700008D818C831D829E831F8227E030E009C299
:10F710001A8288E08B8381E48C8386E58D8382E581
:10F720008E8389E48F8383E5888780E589878FE5E9
:10F730008A8782E38B872BE030E0F3C18A818139AD
:10F7400041F0823941F0803911F48FE005C080E04A
:10F7500003C082E001C08AE01A828B8344C0772410
:10F76000739482C08D81882311F48EE12CC0813086
:10F7700011F081E028C088E926C01A82E1E0F0E0BB
:10F7800089E08093570084918B831C8224E030E0D1
:10F79000C8C18B81803589F48C81883039F4E2E0EE
:10F7A000F0E089E08093570084910DC0E0E0F0E044
:10F7B00089E080935700849106C0E3E0F0E089E09F
:10F7C0008093570084911A82DFCF8D81836C99E0FA
:10F7D000E1E0F0E0082E90935700E89507B600FCB2
:10F7E000FDCF1A821B8223E030E09BC180EC8A832C
:10F7F000CE5CDE4F188219821A821B82C253D1401E
:10F800008EC18A8190E0A0E0B0E0582F44273327D2
:10F8100022278B8190E0A0E0B0E0DC0199278827C7
:10F82000282B392B4A2B5B2B8D8190E0A0E0B0E098
:10F83000282B392B4A2B5B2B8C8190E0A0E0B0E089
:10F84000BA2FA92F982F8827282B392B4A2B5B2BCF
:10F85000220F331F441F551FC05EDE4F288339839C
:10F860004A835B83C052D1401A8259C13A81C95C34
:10F87000DE4F3883C753D140CA5CDE4F1882C6536F
:10F88000D1408B81C82EDD24CA5CDE4F488159816E
:10F89000C653D140C42AD52A933109F082C0CE5C28
:10F8A000DE4F88819981AA81BB81C253D1408050AB
:10F8B000904CA340B04030F583E0CE5CDE4FE88052
:10F8C000F9800A811B81C253D140F70100935B008C
:10F8D00080935700E89507B600FCFDCFCE5CDE4F65
:10F8E000088119812A813B81C253D14000501F4FAA
:10F8F0002F4F3F4FCE5CDE4F088319832A833B8313
:10F90000C253D140C05EDE4F488159816A817B81FC
:10F91000C052D140DE011B9631E08C9111962C91A2
:10F9200011971296C75CDE4F2883C953D140C85C3B
:10F93000DE4F1882C853D14090E0C85CDE4FE881AA
:10F94000F981C853D1408E2B9F2B0C01FA01609393
:10F950005B0030935700E89511244E5F5F4F6F4F67
:10F960007F4F0EEFE02E0FEFF02ECE0CDF1CC114F8
:10F97000D10499F685E0C05EDE4F088119812A81A5
:10F980003B81C052D140F80120935B008093570027
:10F99000E89507B600FCFDCF81E180935700E8951C
:10F9A00035C0C05EDE4F88819981AA81BB81C0527B
:10F9B000D140B695A795979587957C018601ABE0D8
:10F9C000AA2EB12CAC0EBD1E0BC0D5016D915D01F0
:10F9D000C7010F947FFE0894E11CF11C01501040F8
:10F9E0000115110591F7A60160E070E0440F551F65
:10F9F000661F771FC05EDE4FE880F9800A811B8199
:10FA0000C052D1404E0D5F1D601F711F1A82C05E33
:10FA1000DE4F488359836A837B83C052D1407FC0C5
:10FA2000FA80C55CDE4FF882CB53D140C65CDE4F16
:10FA30001882CA53D1408B81C82EDD24C65CDE4FAC
:10FA400008811981CA53D140C02AD12A1A828981DA
:10FA5000BE016D5F7F4F843121F59601C05EDE4FA0
:10FA6000E880F9800A811B81C052D1400BBFF701A9
:10FA700087919691DB018C9311969C936E5F7F4FDB
:10FA8000D801C7010296A11DB11DC05EDE4F88835B
:10FA90009983AA83BB83C052D14022503040F1F6F3
:10FAA00036C0C05EDE4F288139814A815B81C052F9
:10FAB000D1400894C108D108760100E010E0089414
:10FAC000C11CD11C0894E11CF11C011D111DE20E8A
:10FAD000F31E041F151F21BDBB27A52F942F832FB5
:10FAE00082BD2F5F3F4F4F4F5F4FF89A80B5DB01CC
:10FAF0008D93BD012E153F054007510761F7C05E8C
:10FB0000DE4F288339834A835B83C052D1409601FC
:10FB10002D5F3F4FFB01108204C080EC8A8322E0FE
:10FB200030E08BE18093C6008091C00086FFFCCF5F
:10FB30008091C00080648093C000C15DDE4FF88179
:10FB4000CF52D140F093C6008091C00086FFFCCF19
:10FB50008091C00080648093C000432F3093C60022
:10FB60008091C00086FFFCCF8091C00080648093AC
:10FB7000C000922F2093C6008091C00086FFFCCF6A
:10FB80008091C00080648093C0008EE08093C600A6
:10FB90008091C00086FFFCCF8091C000806480937C
:10FBA000C00065E1C15DDE4FE880CF52D1406E25D7
:10FBB00069276427FE01319610C090819093C6009A
:10FBC0008091C00086FFFCCF31968091C000806498
:10FBD0008093C0006927215030402115310569F715
:10FBE0006093C6008091C00086FFFCCF8091C0006A
:10FBF00080648093C00085B1805885B9772081F4F6
:10FC0000C15DDE4F0881CF52D1400F5FC15DDE4F35
:10FC10000883CF52D14090E0A0E0B0E00D941AF4F8
:10FC200027982F9880E090E020ED37E0F901319798
:10FC3000F1F7019684369105C9F700008091C00064
:10FC40008D7F8093C00081E180935700E895EE2777
:10FC5000FF270994FFCF90E00D941AF497FB092E2B
:10FC600007260AD077FD04D02ED006D000201AF443
:10FC7000709561957F4F0895F6F7909581959F4F08
:10FC80000895A1E21A2EAA1BBB1BFD010DC0AA1FDD
:10FC9000BB1FEE1FFF1FA217B307E407F50720F0F5
:10FCA000A21BB30BE40BF50B661F771F881F991F70
:10FCB0001A9469F760957095809590959B01AC01B9
:10FCC000BD01CF010895AA1BBB1B51E107C0AA1FAC
:10FCD000BB1FA617B70710F0A61BB70B881F991FED
:10FCE0005A95A9F780959095BC01CD010895F99991
:10FCF000FECF92BD81BDF89A992780B50895262F31
:10FD0000F999FECF1FBA92BD81BD20BD0FB6F89400
:0EFD1000FA9AF99A0FBE01960895F894FFCF63
:040000033000E000E9
:00000001FF
